{
  "contractName": "Bank",
  "abi": [
    {
      "inputs": [],
      "payable": false,
      "stateMutability": "nonpayable",
      "type": "constructor"
    },
    {
      "payable": false,
      "stateMutability": "nonpayable",
      "type": "fallback"
    },
    {
      "constant": false,
      "inputs": [
        {
          "internalType": "address",
          "name": "_fromAddress",
          "type": "address"
        },
        {
          "internalType": "address",
          "name": "_toAddress",
          "type": "address"
        },
        {
          "internalType": "uint256",
          "name": "_withdrawAmount",
          "type": "uint256"
        }
      ],
      "name": "transferMoney",
      "outputs": [],
      "payable": false,
      "stateMutability": "nonpayable",
      "type": "function"
    },
    {
      "constant": true,
      "inputs": [
        {
          "internalType": "address",
          "name": "_accountAddress",
          "type": "address"
        }
      ],
      "name": "balance",
      "outputs": [
        {
          "internalType": "uint256",
          "name": "",
          "type": "uint256"
        }
      ],
      "payable": false,
      "stateMutability": "view",
      "type": "function"
    }
  ],
  "bytecode": "0x608060405234801561001057600080fd5b50600069873468746387478346839050610028610142565b60405180606001604052808373ffffffffffffffffffffffffffffffffffffffff1681526020013373ffffffffffffffffffffffffffffffffffffffff168152602001603281525090506000819080600181540180825580915050906001820390600052602060002090600302016000909192909190915060008201518160000160006101000a81548173ffffffffffffffffffffffffffffffffffffffff021916908373ffffffffffffffffffffffffffffffffffffffff16021790555060208201518160010160006101000a81548173ffffffffffffffffffffffffffffffffffffffff021916908373ffffffffffffffffffffffffffffffffffffffff16021790555060408201518160020155505050505061018f565b6040518060600160405280600073ffffffffffffffffffffffffffffffffffffffff168152602001600073ffffffffffffffffffffffffffffffffffffffff168152602001600081525090565b6105ac8061019e6000396000f3fe608060405234801561001057600080fd5b50600436106100365760003560e01c80636410381c1461003b578063e3d670d7146100a9575b600080fd5b6100a76004803603606081101561005157600080fd5b81019080803573ffffffffffffffffffffffffffffffffffffffff169060200190929190803573ffffffffffffffffffffffffffffffffffffffff16906020019092919080359060200190929190505050610101565b005b6100eb600480360360208110156100bf57600080fd5b81019080803573ffffffffffffffffffffffffffffffffffffffff1690602001909291905050506102ba565b6040518082815260200191505060405180910390f35b3373ffffffffffffffffffffffffffffffffffffffff168373ffffffffffffffffffffffffffffffffffffffff1614610185576040517f08c379a000000000000000000000000000000000000000000000000000000000815260040180806020018281038252604a8152602001806104f1604a913960600191505060405180910390fd5b8061018f846102ba565b101561019a57600080fd5b6101a26104a3565b60405180606001604052808573ffffffffffffffffffffffffffffffffffffffff1681526020018473ffffffffffffffffffffffffffffffffffffffff1681526020018381525090506000819080600181540180825580915050906001820390600052602060002090600302016000909192909190915060008201518160000160006101000a81548173ffffffffffffffffffffffffffffffffffffffff021916908373ffffffffffffffffffffffffffffffffffffffff16021790555060208201518160010160006101000a81548173ffffffffffffffffffffffffffffffffffffffff021916908373ffffffffffffffffffffffffffffffffffffffff1602179055506040820151816002015550505050505050565b6000806000905060008090503373ffffffffffffffffffffffffffffffffffffffff168473ffffffffffffffffffffffffffffffffffffffff161461034a576040517f08c379a000000000000000000000000000000000000000000000000000000000815260040180806020018281038252603d81526020018061053b603d913960400191505060405180910390fd5b60008090505b600080549050811015610496578473ffffffffffffffffffffffffffffffffffffffff166000828154811061038157fe5b906000526020600020906003020160010160009054906101000a900473ffffffffffffffffffffffffffffffffffffffff1673ffffffffffffffffffffffffffffffffffffffff1614156103f357600081815481106103dc57fe5b906000526020600020906003020160020154830192505b8473ffffffffffffffffffffffffffffffffffffffff166000828154811061041757fe5b906000526020600020906003020160000160009054906101000a900473ffffffffffffffffffffffffffffffffffffffff1673ffffffffffffffffffffffffffffffffffffffff161415610489576000818154811061047257fe5b906000526020600020906003020160020154820191505b8080600101915050610350565b5080820392505050919050565b6040518060600160405280600073ffffffffffffffffffffffffffffffffffffffff168152602001600073ffffffffffffffffffffffffffffffffffffffff16815260200160008152509056fe506c65617365207472616e73666572206d6f6e65792066726f6d20796f7572206163636f756e742c206e6f742066726f6d20736f6d65626f647920656c73652773206163636f756e742e506c6561736520646f6e27742074727920746f20636865636b2062616c616e6365206f6620736f6d65626f647920656c73652773206163636f756e742ea265627a7a72315820bd7c47ccd1c0e377b055a4aa3e7d4620b382a4a88407b9c4a94b3728839f377664736f6c634300050c0032",
  "source": "pragma solidity ^0.5.12;\r\n\r\ncontract Bank {\r\n    struct Transaction {\r\n        address fromAddress;\r\n        address toAddress;\r\n        uint amount;\r\n    }\r\n \r\n Transaction[] transactions;\r\n \r\n constructor() public {\r\n    /* Creates an initial transaction from a dummy address to the address of account which deployed this contract. */\r\n    address dummyAddress = address(0x87346874638747834683);\r\n    Transaction memory transaction = Transaction(dummyAddress, msg.sender, 50);\r\n    transactions.push(transaction);\r\n }\r\n\r\n\r\nfunction transferMoney(address _fromAddress, address _toAddress, uint _withdrawAmount) public {\r\n    \r\n    require(_fromAddress == msg.sender, \"Please transfer money from your account, not from somebody else's account.\");\r\n    require(balance(_fromAddress) >= _withdrawAmount);\r\n    Transaction memory transaction = Transaction(_fromAddress, _toAddress, _withdrawAmount);\r\n    transactions.push(transaction);\r\n }\r\n \r\n \r\n function balance(address _accountAddress) public view returns (uint) {\r\n    uint balanceIn = 0;\r\n    uint balanceOut = 0;\r\n    \r\n    require(_accountAddress == msg.sender, \"Please don't try to check balance of somebody else's account.\");\r\n    for (uint i = 0; i < transactions.length; i++) {\r\n        if (transactions[i].toAddress == _accountAddress) {\r\n            balanceIn += transactions[i].amount;\r\n        }\r\n        if (transactions[i].fromAddress == _accountAddress) {\r\n            balanceOut += transactions[i].amount;\r\n        }   \r\n    }\r\n    return balanceIn - balanceOut;\r\n }\r\n \r\n function() external {\r\n    revert();\r\n }\r\n}\r\n",
  "sourcePath": "C:/xampp/htdocs/Money-Transfer-DApp/contracts/Main.sol",
  "compiler": {
    "name": "solc",
    "version": "0.5.12+commit.7709ece9.Emscripten.clang"
  },
  "schemaVersion": "3.0.19",
  "updatedAt": "2020-11-28T13:23:19.827Z",
  "devdoc": {
    "methods": {}
  },
  "userdoc": {
    "methods": {}
  }
}